:100000000C9434000C9451000C9451000C94510049
:100010000C9451000C9451000C9451000C9451001C
:100020000C9451000C9451000C9451000C9451000C
:100030000C9451000C9451000C946D040C945100DC
:100040000C9451000C9451000C94FC040C9451003D
:100050000C9451000C9451000C9451000C945100DC
:100060000C9451000C94510011241FBECFEFD8E026
:10007000DEBFCDBF11E0A0E0B1E0E4E8F8E102C0EE
:1000800005900D92A03DB107D9F723E0A0EDB1E0B6
:1000900001C01D92A83EB207E1F70E9490020C94A5
:1000A000400C0C940000ECE7F0E0808180648083D9
:1000B000EAE7F0E08081876880830895ECE7F0E06C
:1000C0009081907F90839081892B80838FE193E052
:1000D0000197F1F700C00000EAE7F0E0808180645A
:1000E0008083808184FFFDCF8091780060917900CA
:1000F00070E0762F6627680F711D6F5F7F4F072EA8
:10010000000C880B990B0E94350620E030E04AEF86
:1001100053E40E94C10620E030E040E85AE30E9428
:10012000C10620E030E040E450E40E9491050E94C6
:10013000FD05CB0108952BE0AC01249FC001259F54
:10014000900D112462E370E00E942E07CB014E97C0
:100150000895449840E050E0682F70E04598439837
:1001600098B19B01042E02C0359527950A94E2F7B9
:1001700021703327220F331F220F331F220F331F0B
:10018000292B28B9459A4F5F5F4F4830510531F709
:10019000449A0895CF93DF93EC01E7EDF1E02AE074
:1001A00030E0B9010E942E07DC01A65FBE4F8C91A2
:1001B0008083CB01B9010E942E07DC01A65FBE4FF0
:1001C0008C918183CE0164E670E00E942E07CB0102
:1001D000B9010E942E07DC01A65FBE4F8C9182837D
:1001E000CE0168EE73E00E942E07CB01B9010E9498
:1001F0002E07DC01A65FBE4F8C918383DF91CF91E8
:1002000008958AB1806F8AB98BB18F708BB987B12D
:10021000886387B9449A80E090E00E94CA000895FC
:1002200084B1807F84B985B18F6085B90895189BAA
:1002300008C0199B08C01A9B08C01B9B08C080E01F
:10024000089581E0089582E0089583E0089584E0B0
:1002500008950E94E6040E9401010E9410010E947C
:10026000530060E875E280E090E00E945705539AE1
:100270005B9884B1806384B985B18F7C85B97894AB
:100280000895CF93DF93EB01992334F00E94CA00C5
:100290008FEF8093D90108C09195819591090E94B3
:1002A000CA008DEF8093D901C130D10529F4809126
:1002B0000B018093DA010EC0C230D10529F4809180
:1002C0000C018093DA0106C0239721F480910D017F
:1002D0008093DA01DF91CF9108958091DF018F5FE4
:1002E0008093DF01843020F081E08093DF0102C041
:1002F000813051F48091DB0161E070E0082E000C48
:10030000990B0E9441010895823051F48091DE01E1
:1003100062E070E0082E000C990B0E9441010895E4
:10032000833049F48091DD0163E070E0082E000C19
:10033000990B0E94410108958230C9F0833061F128
:100340008130F1F5809116018F5F8E311CF480931E
:10035000160103C08EE1809316018091160161E0C1
:1003600070E0082E000C990B0E94410129C0809179
:1003700015018F5F8E311CF48093150103C08EE14F
:10038000809315018091150162E070E0082E000C49
:10039000990B0E94410114C0809114018F5F8E312E
:1003A0001CF48093140103C08EE1809314018091AA
:1003B000140163E070E0082E000C990B0E944101CB
:1003C00080911401282F082E000C330B3F938F933C
:1003D00080911501282F082E000C330B3F938F932B
:1003E00080911601282F082E000C330B3F938F931A
:1003F00088E191E09F938F930E941E088DB79EB76E
:1004000008960FB6F8949EBF0FBE8DBF08958091D9
:10041000DF018230C9F0833061F18130F1F58091E4
:1004200016018150833E1CF08093160103C082EEBA
:10043000809316018091160161E070E0082E000C97
:10044000990B0E94410129C0809115018150833E82
:100450001CF08093150103C082EE809315018091FA
:10046000150162E070E0082E000C990B0E9441011A
:1004700014C0809114018150833E1CF080931401BC
:1004800003C082EE809314018091140163E070E058
:10049000082E000C990B0E94410180911401282F15
:1004A000082E000C330B3F938F9380911501282F5A
:1004B000082E000C330B3F938F9380911601282F49
:1004C000082E000C330B3F938F9388E191E09F93AC
:1004D0008F930E941E088DB79EB708960FB6F894AA
:1004E0009EBF0FBE8DBF08959091DB0180911601D4
:1004F000891714F45B9A01C05B989091DE0180919A
:100500001501891714F42C9A01C02C989091DD01E3
:1005100080911401891714F42D9A08952D98089547
:100520000E942901712C0F2EF0E3AF2EF1E0BF2EB7
:10053000F02D0F2EF4E4CF2EF1E0DF2EF02D0F2E54
:10054000F8E5EF2EF1E0FF2EF02D08E111E00F2E7F
:10055000FEE13F2EF02D0F2EF2EE6F2EF02D0F2E1E
:10056000F2E34F2EF02D0F2EFDEC5F2EF02D0F2E0F
:10057000FDE78F2EF1E09F2EF02D0E9474028091F6
:100580001701882309F485C082E00E945E000E9462
:100590009B00833E1CF46092DB0107C08E311CF48B
:1005A0008093DB0102C03092DB0181E00E945E009B
:1005B0000E949B00833E1CF46092DE0107C08E31D6
:1005C0001CF48093DE0102C03092DE0180E00E94C4
:1005D0005E000E949B00833E1CF46092DD0107C018
:1005E0008E311CF48093DD0102C03092DD018091D8
:1005F000DB01282F082E000C330B3F938F93BF9203
:10060000AF920E941E0823E02A95F1F70000809126
:10061000DE01282F082E000C330B3F938F93DF92BF
:10062000CF920E941E0883E08A95F1F70000809126
:10063000DD01282F082E000C330B3F938F93FF9280
:10064000EF920E941E0880911401282F082E000CA2
:10065000330B3F938F9380911501282F082E000CA8
:10066000330B3F938F9380911601282F082E000C97
:10067000330B3F938F931F930F930E941E0810928A
:1006800017018DB79EB744960FB6F8949EBF0FBE64
:100690008DBF8091DC03882309F4BFC08091DC0307
:1006A00081508093DC03479CC00111246CE671E00B
:1006B00088519E4F0E949607EC0160E771E00E940E
:1006C0009B07892B71F56CE671E080E090E00E9459
:1006D00096070E947807833E1CF46092160107C0BB
:1006E0008E311CF48093160102C030921601809165
:1006F000160161E070E0082E000C990B0E94410188
:1007000080911601282F082E000C330B3F938F93F6
:100710009F928F920E941E080F900F900F900F9043
:100720006DC060E971E0CE010E949B07892B81F5C5
:100730006CE671E080E090E00E9496070E947807E6
:10074000833E1CF46092150107C08E311CF4809327
:10075000150102C0309215018091150162E070E030
:10076000082E000C990B0E94410180911501282F41
:10077000082E000C330B3F938F938DE991E09F93EC
:100780008F930E941E080F900F900F900F9036C00D
:1007900060EB71E0CE010E949B07892B79F56CE636
:1007A00071E080E090E00E9496070E947807833E07
:1007B0001CF46092140107C08E311CF48093140164
:1007C00002C0309214018091140163E070E0082EA1
:1007D000000C990B0E94410180911401282F082ED2
:1007E000000C330B3F938F938DEB91E09F938F938E
:1007F0000E941E080F900F900F900F9091E0970DA0
:10080000959D712C1124769476947694770C872D8F
:10081000880F880F780E9719792E8091DC01882334
:1008200009F44DC082E48A95F1F700C00E941701D7
:10083000882309F44BC00E941701823061F018F43C
:10084000813031F039C0833061F0843081F034C0C0
:100850000E946D0131C08091DF0190E00E949C01F7
:100860002BC08091DF0190E00E94070225C080919B
:10087000DF01823071F08330B1F08130E9F4809192
:10088000DB0161E070E0082E000C990B0E94410131
:1008900013C08091DE0162E070E0082E000C990B1D
:1008A0000E94410109C08091DD0163E070E0082EE3
:1008B000000C990B0E9441011092DC0107C00E94BC
:1008C0001701811103C081E08093DC0183EC99E082
:1008D0000197F1F700C0000050CE1F920F920FB6A3
:1008E0000F9211242F933F934F935F936F937F93B6
:1008F0008F939F93AF93BF93EF93FF938091E60104
:100900008B30E8F48091E6018F5F8093E60180915F
:10091000D3019091D40101969093D4018093D30197
:100920008091D3019091D401883E9340FCF0809156
:10093000D3019091D40181E08093170117C0809179
:10094000D3019091D40101969093D4018093D30167
:100950008091D3019091D401883B9B403CF0109250
:10096000D4011092D30181E0809317018091D201CC
:100970008F5F8093D2018091D201843010F0109269
:10098000D2018BB18F708BB9E091D201F0E0E952C6
:10099000FE4F80810E94A900E091D2019BB1F0E05E
:1009A000EA5FFE4F8081892B8BB9FF91EF91BF9158
:1009B000AF919F918F917F916F915F914F913F91F7
:1009C0002F910F900FBE0F901F90189584B58260E5
:1009D00084BD85B5836085BD89EF87BDEEE6F0E017
:1009E0008081826080830895E0ECF0E0908195FF43
:1009F000FDCF8093C60008951F920F920FB60F92FD
:100A000011242F938F939F93EF93FF938091C600B0
:100A10008093E7018091D6018233E0F59091DC0369
:100A20009B30C0F59091E7019A3019F59091D5016E
:100A300022E3929FF0011124E851FE4FE80FF11DCF
:100A400010821092D6018091DC038F5F8093DC03CB
:100A50009F5F8DEC989F812D1124869586958695B4
:100A6000880F282F220F220F820F981B9093D501F9
:100A700011C0E091D50191E0980F9093D60190912B
:100A8000E70122E3E29FF0011124E851FE4FE80F55
:100A9000F11D908381E08093DD03FF91EF919F91A1
:100AA0008F912F910F900FBE0F901F901895CF929E
:100AB000DF92EF92FF926B017C0160E070E084EFC7
:100AC00094E00E94D307E1ECF0E0808188698083A4
:100AD000E2ECF0E080818660808360E472E48FE085
:100AE00090E0A70196010E944207DA01C90101972F
:100AF000A109B109892F9A2FAB2FBB278093C5007D
:100B000021502093C4008091C6008FE99FE0019797
:100B1000F1F700C00000FF90EF90DF90CF900895B4
:100B20005058BB27AA270E94A8050C9487060E944C
:100B3000790638F00E94800620F039F49F3F19F4BE
:100B400026F40C9476060EF4E095E7FB0C94700600
:100B5000E92F0E94980658F3BA17620773078407B3
:100B6000950720F079F4A6F50C94BA060EF4E095FA
:100B70000B2EBA2FA02D0B01B90190010C01CA0157
:100B8000A0011124FF27591B99F0593F50F4503E02
:100B900068F11A16F040A22F232F342F4427585FF4
:100BA000F3CF469537952795A795F0405395C9F70C
:100BB0007EF41F16BA0B620B730B840BBAF09150C4
:100BC000A1F0FF0FBB1F661F771F881FC2F70EC063
:100BD000BA0F621F731F841F48F487957795679536
:100BE000B795F7959E3F08F0B0CF9395880F08F022
:100BF0009927EE0F9795879508950E9404066894AB
:100C0000B1110C94BB0608950E94A00688F09F576E
:100C100098F0B92F9927B751B0F0E1F0660F771F20
:100C2000881F991F1AF0BA95C9F714C0B13091F016
:100C30000E94BA06B1E008950C94BA06672F782F87
:100C40008827B85F39F0B93FCCF3869577956795DB
:100C5000B395D9F73EF490958095709561957F4F47
:100C60008F4F9F4F0895E89409C097FB3EF49095ED
:100C70008095709561957F4F8F4F9F4F9923A9F075
:100C8000F92F96E9BB279395F69587957795679504
:100C9000B795F111F8CFFAF4BB0F11F460FF1BC048
:100CA0006F5F7F4F8F4F9F4F16C0882311F096E9DB
:100CB00011C0772321F09EE8872F762F05C0662389
:100CC00071F096E8862F70E060E02AF09A95660F42
:100CD000771F881FDAF7880F9695879597F90895FB
:100CE00097F99F6780E870E060E008959FEF80ECDF
:100CF000089500240A941616170618060906089582
:100D000000240A9412161306140605060895092EE7
:100D10000394000C11F4882352F0BB0F40F4BF2B56
:100D200011F460FF04C06F5F7F4F8F4F9F4F089596
:100D300057FD9058440F551F59F05F3F71F047958C
:100D4000880F97FB991F61F09F3F79F08795089571
:100D5000121613061406551FF2CF4695F1DF08C090
:100D6000161617061806991FF1CF869571056105AD
:100D700008940895E894BB2766277727CB0197F955
:100D800008950E94D4060C9487060E94790638F0D4
:100D90000E94800620F0952311F00C9470060C94AC
:100DA000760611240C94BB060E94980670F3959F5A
:100DB000C1F3950F50E0551F629FF001729FBB2752
:100DC000F00DB11D639FAA27F00DB11DAA1F649FEE
:100DD0006627B00DA11D661F829F2227B00DA11DA1
:100DE000621F739FB00DA11D621F839FA00D611D27
:100DF000221F749F3327A00D611D231F849F600D48
:100E0000211D822F762F6A2F11249F5750409AF070
:100E1000F1F088234AF0EE0FFF1FBB1F661F771FFC
:100E2000881F91505040A9F79E3F510580F00C94C7
:100E300070060C94BB065F3FE4F3983ED4F38695AE
:100E400077956795B795F795E7959F5FC1F7FE2B67
:100E5000880F911D9695879597F9089597FB072E12
:100E600016F4009407D077FD09D00E94640707FCB0
:100E700005D03EF4909581959F4F089570956195AA
:100E80007F4F0895A1E21A2EAA1BBB1BFD010DC0C6
:100E9000AA1FBB1FEE1FFF1FA217B307E407F5072A
:100EA00020F0A21BB30BE40BF50B661F771F881F06
:100EB000991F1A9469F760957095809590959B019C
:100EC000AC01BD01CF010895AA1BBB1B51E107C0B6
:100ED000AA1FBB1FA617B70710F0A61BB70B881FCA
:100EE000991F5A95A9F780959095BC01CD01089559
:100EF000FC0188279927E89421912032E9F32930D1
:100F000010F02E30C8F32B3241F02D3239F46894B2
:100F100004C00E94CB07820F911D219120532A30DB
:100F2000C0F31EF4909581959F4F089540ED51E0D8
:100F30000E94A4070895FB01DC018D9101908019A6
:100F40000110D9F3990B0895FA01A191B08100978E
:100F500019F41097E1F0CD01DC01CD010D900020D6
:100F600011F4C00113C0FB012191222319F02015B7
:100F7000D9F7F3CFFB012191201519F41E92119698
:100F800006C02223C1F70D900020A1F7D001FA017D
:100F9000A193B08308957AE0979F902D879F802D2D
:100FA000910D112408950F931F93CF93DF93009712
:100FB00031F46115710519F480E090E03AC08B01BD
:100FC000EC016EE070E081E090E00E94150AFC0107
:100FD000892B91F380E883830115110571F0138744
:100FE000028781E883838091DE039091DF03892B60
:100FF00021F4F093DF03E093DE032097C9F0D1875B
:10100000C0878381826083838091E0039091E103B4
:10101000892B71F4F093E103E093E0038091E20304
:101020009091E303892B21F4F093E303E093E2032F
:10103000CF01DF91CF911F910F910895A0E0B0E013
:10104000E4E2F8E00C94190CAE014B5F5F4FFA013B
:1010500061917191AF018091E0039091E1030E9451
:101060003408E2E00C94350CABE0B0E0EAE3F8E0E1
:101070000C94090C6C017B018A01FC011782168219
:10108000838181FFCCC1CE0101963C01F6019381A1
:10109000F70193FD859193FF81917F01882309F4E6
:1010A000BAC1853239F493FD859193FF81917F0117
:1010B000853229F4B60190E00E946F0BE7CF912CA6
:1010C000212C312CFFE1F315D8F08B3279F038F474
:1010D000803279F08332A1F4232D20611DC08D323E
:1010E00061F0803369F4232D216016C0832D826066
:1010F000382EE32DE4603E2E2AC0F32DF8601DC08B
:1011000037FC2DC020ED280F2A3040F08E32B9F484
:1011100036FC81C1232D2064322E19C036FE06C054
:101120008AE0989E200D1124922E11C0EAE02E9E96
:10113000200D1124222EF32DF0623F2E08C08C3694
:1011400021F4832D8068382E02C0883641F4F701DF
:1011500093FD859193FF81917F018111B3CF982FEA
:101160009F7D9554933028F40C5F1F4F9FE3998324
:101170000DC0833631F0833771F0833509F059C0E3
:1011800021C0F801808189830E5F1F4F88248394DA
:10119000912C530113C02801F2E04F0E511CF801AD
:1011A000A080B18036FE03C0692D70E002C06FEFF1
:1011B0007FEFC5010E94640B4C018201F32DFF7784
:1011C0003F2E16C0280122E0420E511CF801A080DB
:1011D000B18036FE03C0692D70E002C06FEF7FEF73
:1011E000C5010E94520B4C01F32DF0683F2E820185
:1011F00033FC1BC0822D90E088169906B0F4B6012E
:1012000080E290E00E946F0B2A94F4CFF50137FC46
:10121000859137FE81915F01B60190E00E946F0BCE
:1012200021102A9421E0821A91088114910471F707
:10123000E8C0843611F0893641F5F80137FE07C061
:1012400060817181828193810C5F1F4F08C0608132
:101250007181072E000C880B990B0E5F1F4FF32D29
:10126000FF763F2E97FF09C0909580957095619508
:101270007F4F8F4F9F4FF0683F2E2AE030E0A30151
:101280000E94AB0B882E861845C0853731F4232D7C
:101290002F7EB22E2AE030E025C0932D997FB92E03
:1012A0008F36C1F018F4883579F0B5C0803719F061
:1012B000883721F0B0C0E92FE061BE2EB4FE0DC02A
:1012C000FB2DF460BF2E09C034FE0AC0292F266012
:1012D000B22E06C028E030E005C020E130E002C0B8
:1012E00020E132E0F801B7FE07C0608171818281A0
:1012F00093810C5F1F4F06C06081718180E090E098
:101300000E5F1F4FA3010E94AB0B882E8618FB2D8A
:10131000FF773F2E36FE0DC0232D2E7FA22E89147F
:1013200058F434FE0BC032FC09C0832D8E7EA82EEB
:1013300005C0B82CA32C03C0B82C01C0B92CA4FE46
:101340000FC0FE01E80DF11D8081803321F49A2D3C
:10135000997EA92E09C0A2FE06C0B394B39404C01E
:101360008A2D867809F0B394A3FC11C0A0FE06C0B4
:10137000B21488F4280C922C9B180EC0B21460F49E
:10138000B60180E290E00E946F0BB394F7CFB214E5
:1013900018F42B1802C0982C212CA4FE10C0B60102
:1013A00080E390E00E946F0BA2FE17C0A1FC03C077
:1013B00088E790E002C088E590E0B6010CC08A2D75
:1013C000867859F0A1FE02C08BE201C080E2A7FC42
:1013D0008DE2B60190E00E946F0B891438F4B601DB
:1013E00080E390E00E946F0B9A94F7CF8A94F30108
:1013F000E80DF11D8081B60190E00E946F0B811015
:10140000F5CF222009F442CEB60180E290E00E949E
:101410006F0B2A94F6CFF6018681978102C08FEF79
:101420009FEF2B96E2E10C94250C0F931F93CF9323
:10143000DF93869F8001879F100D969F100D1124CA
:10144000C8010E94310AEC01009729F0A80160E070
:1014500070E00E945D0BCE01DF91CF911F910F9143
:1014600008950F931F93CF93DF938230910510F46B
:1014700082E090E0E091E603F091E70320E030E0C5
:10148000A0E0B0E0309719F14081518102811381D1
:1014900048175907C8F08417950769F4109731F079
:1014A00012960C93129713961C9327C00093E60391
:1014B0001093E70322C02115310519F04217530795
:1014C00018F49A01BD01EF01DF01F801DBCF21150E
:1014D0003105F9F0281B390B2430310580F48A815D
:1014E0009B816115710521F0FB019383828304C008
:1014F0009093E7038093E603FE01329644C0FE0119
:10150000E20FF31F8193919322503109398328838D
:101510003AC02091E4033091E503232B41F420915C
:101520000201309103013093E5032093E4032091FD
:101530000001309101012115310541F42DB73EB76D
:101540004091040150910501241B350BE091E40307
:10155000F091E503E217F307A0F42E1B3F0B2817C9
:10156000390778F0AC014E5F5F4F2417350748F01C
:101570004E0F5F1F5093E5034093E40381939193D3
:1015800002C0E0E0F0E0CF01DF91CF911F910F9119
:101590000895CF93DF93009709F481C0FC0132973F
:1015A00013821282A091E603B091E703109781F4B1
:1015B00020813181820F931F2091E4033091E50354
:1015C0002817390751F5F093E503E093E40367C06A
:1015D000ED0120E030E0CE17DF0740F44A815B8167
:1015E0009E0141155105F1F0EA01F5CFD383C28385
:1015F00040815181840F951FC817D90759F48881FC
:101600009981840F951F0296918380838A819B81A3
:10161000938382832115310529F4F093E703E09346
:10162000E6033DC0E901FB83EA8349915991C40F68
:10163000D51FEC17FD0761F480819181840F951F00
:101640000296E90199838883828193819B838A83AF
:10165000E0E0F0E012968D919C911397009719F0BD
:10166000FD01DC01F7CF8D919C9111979D012E5FBB
:101670003F4F820F931F2091E4033091E503281719
:10168000390769F4309729F41092E7031092E603C2
:1016900002C013821282B093E503A093E403DF91AA
:1016A000CF910895FC010590615070400110D8F76A
:1016B000809590958E0F9F1F0895DC0101C06D935A
:1016C00041505040E0F70895FC0161507040019096
:1016D0000110D8F7809590958E0F9F1F08950F9356
:1016E0001F93CF93DF93FB01238121FD03C08FEF75
:1016F0009FEF2CC022FF16C046815781248135817F
:101700004217530744F4A081B1819D012F5F3F4FE1
:10171000318320838C93268137812F5F3F4F37831E
:10172000268314C08B01EC01FB010084F185E02DC0
:101730000995892BE1F6D80116968D919C91179702
:10174000019617969C938E931697CE01DF91CF91B9
:101750001F910F910895FA01AA27283051F12031E5
:1017600081F1E8946F936E7F6E5F7F4F8F4F9F4F35
:10177000AF4FB1E03ED0B4E03CD0670F781F891F77
:101780009A1FA11D680F791F8A1F911DA11D6A0F45
:10179000711D811D911DA11D20D009F468943F91F8
:1017A0002AE0269F11243019305D3193DEF6CF01F7
:1017B0000895462F4770405D4193B3E00FD0C9F7BD
:1017C000F6CF462F4F70405D4A3318F0495D31FD2A
:1017D0004052419302D0A9F7EACFB4E0A69597957D
:1017E000879577956795BA95C9F700976105710553
:1017F00008959B01AC010A2E06945795479537959D
:101800002795BA95C9F7620F731F841F951FA01DF6
:1018100008952F923F924F925F926F927F928F9294
:101820009F92AF92BF92CF92DF92EF92FF920F936F
:101830001F93CF93DF93CDB7DEB7CA1BDB0B0FB679
:10184000F894DEBF0FBECDBF09942A883988488836
:101850005F846E847D848C849B84AA84B984C884CC
:10186000DF80EE80FD800C811B81AA81B981CE0FC3
:10187000D11D0FB6F894DEBF0FBECDBFED010895A8
:04188000F894FFCF0A
:101884000000E803200080402010039F250D9949A3
:10189400411F0109141414016465736972655F744E
:1018A400656D70203A2025642025642025640A0093
:1018B400726F6F6D315F63757272656E74203A205A
:1018C40025640A00726F6F6D325F63757272656EA4
:1018D40074203A2025640A00726F6F6D335F63755C
:1018E4007272656E74203A2025640A00203A200042
:1018F400726F6F6D315F64657369726500726F6FCB
:101904006D315F646573697265203A2025640A004D
:10191400726F6F6D325F64657369726500726F6FA9
:101924006D325F646573697265203A2025640A002C
:10193400726F6F6D335F64657369726500726F6F88
:101944006D335F646573697265203A2025640A000B
:00000001FF
